:10000000B7110000938101803712000013020280B3
:10001000B7020120138102001385818873105530C7
:1000200073102034EF008010370400001304041311
:100030000325040013044400E70005006FF05FFF90
:0C004000EF00C0026F0040006F000000E5
:10004C003721000013010102B721000093817107D1
:10005C00B340310013000000938201006780000060
:10006C00130101FF23261100EFF09FFD1305000083
:0C007C008320C100130101016780000017
:10008800130101FC232011002322510023246100C5
:10009800232671002328A100232AB100232CC100A4
:1000A800232ED1002320E1022322F102232401037D
:1000B800232611032328C103232AD103232CE10378
:1000C800232EF10373252034F325103413838192F2
:1000D800E7000300731015348320010083224100D8
:1000E800032381008323C1000325010183254101E6
:1000F800032681018326C1010327010283274102C8
:10010800032881028328C102032E0103832E4103A1
:10011800032F8103832FC1031301010473002030CF
:040128006F00000064
:04012C0067800000E8
:04013000400000008B
:00000001FF
