:10000000B71100209381018037120000130242AE25
:10001000B70201201381020037050000130585187F
:100020007310553073102034EF0080203704000027
:10003000130404310325040013044400E700050001
:100040006FF05FFFEF00C00F6F0040006F00000017
:100050009382818003A3020083A34200138E018157
:10006000832E0E00032F4E00B344D30133C9E301A6
:10007000B70201009382F2FF33F5540093D50401D7
:10008000B3F555003376590093560901B3F656007F
:1000900013C3F5FF33735300B3736500B3F3530019
:1000A000334ED600337E5E00B3C9C301B3F95900A5
:1000B00033EF6600337F5F00B34FE501B3FF5F00AE
:1000C000334AF601337A5A0033C3C5003373530001
:1000D000B373FE01B3F35300334B7300337B5B0008
:1000E00033EE6900337E5E00B3CACF01B3FA5A0023
:1000F00013131A009353FA00336A7300337A5A00C9
:100100001393CA0093D34A00B36A7300B3FA5A0038
:100110001313DB0093533B00336B7300337B5B00A3
:1001200013150A013365350193150B01B3E555012C
:100130009382018023A0A20023A2B2006780000066
:10014000130101FF23261100130500002322A10043
:100150002324A100EFF0DFEF83A501803705000025
:100160001305C52AEF00801083A5418037050000E4
:100170001305652CEF00800F032541008320C1008B
:0801800013010101678000007A
:10018800130101FC232011002322510023246100C4
:10019800232671002328A100232AB100232CC100A3
:1001A800232ED1002320E1022322F102232401037C
:1001B800232611032328C103232AD103232CE10377
:1001C800232EF10373252034F32510343703000060
:1001D8001303C322E70003007310153483200100C2
:1001E80083224100032381008323C10003250101E9
:1001F80083254101032681018326C10103270102CA
:1002080083274102032881028328C102032E0103A8
:10021800832E4103032F8103832FC103130101049C
:04022800730020300F
:04022C006F0000005F
:0402300067800000E3
:10023400130101FE1307050093870500130500044D
:1002440093058100232E11002324E1002326F100CD
:10025400EF0040018320C101130101026780000007
:0402640067800000AF
:040268006FF0DFFF55
:10026C00130101FC2322B102232AF1029305C100E0
:10027C0093074102232E11002324C1022326D1020D
:10028C002328E102232C0103232E11032326F10042
:10029C00EFF09FF98320C101130101046780000076
:1002AC004C31206166746572203120726F756E64FA
:0A02BC003A203078253038780A0027
:1002C6004C32206166746572203120726F756E64DF
:0A02D6003A203078253038780A000D
:1002E0000325040083254400032684001304C4006E
:1002F000630E0600838605002300D5001305150054
:10030000938515001306F6FFE31606FE67800000CE
:10031000E00200000000002024030000180000009C
:040320004400000095
:1003240000000000000000007766554433221100ED
:08033400FFEEDDCCBBAA9988A5
:00000001FF
