:10000000B71100209381018037120000130202AD66
:10001000B702012013810200370500001305851780
:100020007310553073102034EF00801F3704000028
:10003000130404300325040013044400E700050002
:100040006FF05FFFEF00800F6F0040006F00000057
:10005000B752341293828267B72500009385F5FF6B
:10006000370608001306F6FF930E1000130F00006A
:10007000930F100013D332013373B300B3F3C200F4
:100080001354C300137414009354730093F41400B6
:1000900013598300137919009359530093F91900E8
:1000A000337A3901935A330093FA1A00B3FADA011A
:1000B000334D9400334D4D01334D5D01334DED0112
:1000C000137D1D0013D423011374140093D4730003
:1000D00093F4140013D9C3001379190093D9A30022
:1000E00093F9190013DA8300137A1A0093DA3300B4
:1000F00093FA1A00B3F92901B3FA4A01B34D9400F7
:10010000B3CD3D01B3CD5D01B3CDFD0193FD1D0028
:10011000131313003363B3013373B30093931300CA
:10012000B3E3A301B3F3C30013840180232064006D
:0C0130009384418023A0740067800000CD
:10013C00130101FF23261100EFF0DFF083A50180EE
:10014C00370500001305C529EF00801083A54180F9
:10015C00370500001305652BEF00800F1305000019
:0C016C008320C100130101016780000026
:10017800130101FC232011002322510023246100D4
:10018800232671002328A100232AB100232CC100B3
:10019800232ED1002320E1022322F102232401038C
:1001A800232611032328C103232AD103232CE10387
:1001B800232EF10373252034F32510343703000070
:1001C8001303C321E70003007310153483200100D3
:1001D80083224100032381008323C10003250101F9
:1001E80083254101032681018326C10103270102DA
:1001F80083274102032881028328C102032E0103B9
:10020800832E4103032F8103832FC10313010104AC
:04021800730020301F
:04021C006F0000006F
:0402200067800000F3
:10022400130101FE1307050093870500130500045D
:1002340093058100232E11002324E1002326F100DD
:10024400EF0040018320C101130101026780000017
:0402540067800000BF
:040258006FF0DFFF65
:10025C00130101FC2322B102232AF1029305C100F0
:10026C0093074102232E11002324C1022326D1021D
:10027C002328E102232C0103232E11032326F10052
:10028C00EFF09FF98320C101130101046780000086
:10029C004C31206166746572203120726F756E640A
:0A02AC003A203078253034780A003B
:1002B6004C32206166746572203120726F756E64EF
:0A02C6003A203078253035780A0020
:1002D0000325040083254400032684001304C4007E
:1002E000630E0600838605002300D5001305150064
:1002F000938515001306F6FFE31606FE67800000DF
:10030000D0020000000000201403000008000000DC
:0403100044000000A5
:080314000000000000000000E1
:00000001FF
